{
	"data": {
		"bytecode": {
			"linkReferences": {},
			"object": "608060405234801561001057600080fd5b50610d43806100206000396000f3fe608060405234801561001057600080fd5b506004361061004c5760003560e01c806314a838b5146100515780632146f3581461006d5780632e28a7ca14610089578063a2415d38146100a5575b600080fd5b61006b60048036038101906100669190610751565b6100d7565b005b61008760048036038101906100829190610751565b6101d2565b005b6100a3600480360381019061009e91906107f0565b6102cd565b005b6100bf60048036038101906100ba91906107f0565b61039c565b6040516100ce939291906108ab565b60405180910390f35b6000806000868152602001908152602001600020600201540361012f576040517f08c379a000000000000000000000000000000000000000000000000000000000815260040161012690610962565b60405180910390fd5b60405180606001604052808481526020018381526020018281525060008086815260200190815260200160002060008201518160000190816101719190610b8e565b5060208201518160010190816101879190610b8e565b50604082015181600201559050507f44e7731fae3ba025f787caa2158f68505a682777ecbbd475434e3646cce47c78846040516101c49190610c60565b60405180910390a150505050565b6000806000868152602001908152602001600020600201541461022a576040517f08c379a000000000000000000000000000000000000000000000000000000000815260040161022190610ced565b60405180910390fd5b604051806060016040528084815260200183815260200182815250600080868152602001908152602001600020600082015181600001908161026c9190610b8e565b5060208201518160010190816102829190610b8e565b50604082015181600201559050507fc3dde9843b95396168c31942d3a80644d111d2d9ef6ee6b8407b4e87d0dba885846040516102bf9190610c60565b60405180910390a150505050565b60008060008381526020019081526020016000206002015403610325576040517f08c379a000000000000000000000000000000000000000000000000000000000815260040161031c90610962565b60405180910390fd5b600080828152602001908152602001600020600080820160006103489190610564565b6001820160006103589190610564565b600282016000905550507fc5ad12f4910935b5f48affb3de5b21a9f5b2c2a8825c8e996f9571563c80e5a5816040516103919190610c60565b60405180910390a150565b60608060008060008086815260200190815260200160002060020154036103f8576040517f08c379a00000000000000000000000000000000000000000000000000000000081526004016103ef90610962565b60405180910390fd5b6000806000868152602001908152602001600020604051806060016040529081600082018054610427906109b1565b80601f0160208091040260200160405190810160405280929190818152602001828054610453906109b1565b80156104a05780601f10610475576101008083540402835291602001916104a0565b820191906000526020600020905b81548152906001019060200180831161048357829003601f168201915b505050505081526020016001820180546104b9906109b1565b80601f01602080910402602001604051908101604052809291908181526020018280546104e5906109b1565b80156105325780601f1061050757610100808354040283529160200191610532565b820191906000526020600020905b81548152906001019060200180831161051557829003601f168201915b505050505081526020016002820154815250509050806000015181602001518260400151935093509350509193909250565b508054610570906109b1565b6000825580601f1061058257506105a1565b601f0160209004906000526020600020908101906105a091906105a4565b5b50565b5b808211156105bd5760008160009055506001016105a5565b5090565b6000604051905090565b600080fd5b600080fd5b6000819050919050565b6105e8816105d5565b81146105f357600080fd5b50565b600081359050610605816105df565b92915050565b600080fd5b600080fd5b6000601f19601f8301169050919050565b7f4e487b7100000000000000000000000000000000000000000000000000000000600052604160045260246000fd5b61065e82610615565b810181811067ffffffffffffffff8211171561067d5761067c610626565b5b80604052505050565b60006106906105c1565b905061069c8282610655565b919050565b600067ffffffffffffffff8211156106bc576106bb610626565b5b6106c582610615565b9050602081019050919050565b82818337600083830152505050565b60006106f46106ef846106a1565b610686565b9050828152602081018484840111156107105761070f610610565b5b61071b8482856106d2565b509392505050565b600082601f8301126107385761073761060b565b5b81356107488482602086016106e1565b91505092915050565b6000806000806080858703121561076b5761076a6105cb565b5b6000610779878288016105f6565b945050602085013567ffffffffffffffff81111561079a576107996105d0565b5b6107a687828801610723565b935050604085013567ffffffffffffffff8111156107c7576107c66105d0565b5b6107d387828801610723565b92505060606107e4878288016105f6565b91505092959194509250565b600060208284031215610806576108056105cb565b5b6000610814848285016105f6565b91505092915050565b600081519050919050565b600082825260208201905092915050565b60005b8381101561085757808201518184015260208101905061083c565b60008484015250505050565b600061086e8261081d565b6108788185610828565b9350610888818560208601610839565b61089181610615565b840191505092915050565b6108a5816105d5565b82525050565b600060608201905081810360008301526108c58186610863565b905081810360208301526108d98185610863565b90506108e8604083018461089c565b949350505050565b7f42756b752064656e67616e204953424e20746572736562757420746964616b2060008201527f646974656d756b616e2e00000000000000000000000000000000000000000000602082015250565b600061094c602a83610828565b9150610957826108f0565b604082019050919050565b6000602082019050818103600083015261097b8161093f565b9050919050565b7f4e487b7100000000000000000000000000000000000000000000000000000000600052602260045260246000fd5b600060028204905060018216806109c957607f821691505b6020821081036109dc576109db610982565b5b50919050565b60008190508160005260206000209050919050565b60006020601f8301049050919050565b600082821b905092915050565b600060088302610a447fffffffffffffffffffffffffffffffffffffffffffffffffffffffffffffffff82610a07565b610a4e8683610a07565b95508019841693508086168417925050509392505050565b6000819050919050565b6000610a8b610a86610a81846105d5565b610a66565b6105d5565b9050919050565b6000819050919050565b610aa583610a70565b610ab9610ab182610a92565b848454610a14565b825550505050565b600090565b610ace610ac1565b610ad9818484610a9c565b505050565b5b81811015610afd57610af2600082610ac6565b600181019050610adf565b5050565b601f821115610b4257610b13816109e2565b610b1c846109f7565b81016020851015610b2b578190505b610b3f610b37856109f7565b830182610ade565b50505b505050565b600082821c905092915050565b6000610b6560001984600802610b47565b1980831691505092915050565b6000610b7e8383610b54565b9150826002028217905092915050565b610b978261081d565b67ffffffffffffffff811115610bb057610baf610626565b5b610bba82546109b1565b610bc5828285610b01565b600060209050601f831160018114610bf85760008415610be6578287015190505b610bf08582610b72565b865550610c58565b601f198416610c06866109e2565b60005b82811015610c2e57848901518255600182019150602085019450602081019050610c09565b86831015610c4b5784890151610c47601f891682610b54565b8355505b6001600288020188555050505b505050505050565b6000602082019050610c75600083018461089c565b92915050565b7f42756b752064656e67616e204953424e2074657273656275742073756461682060008201527f6164612e00000000000000000000000000000000000000000000000000000000602082015250565b6000610cd7602483610828565b9150610ce282610c7b565b604082019050919050565b60006020820190508181036000830152610d0681610cca565b905091905056fea2646970667358221220743c3cd53a8f8decd7c1c4f848623cb0de4417fb9be209337e9ddb983b8d167f64736f6c63430008120033",
			"opcodes": "PUSH1 0x80 PUSH1 0x40 MSTORE CALLVALUE DUP1 ISZERO PUSH2 0x10 JUMPI PUSH1 0x0 DUP1 REVERT JUMPDEST POP PUSH2 0xD43 DUP1 PUSH2 0x20 PUSH1 0x0 CODECOPY PUSH1 0x0 RETURN INVALID PUSH1 0x80 PUSH1 0x40 MSTORE CALLVALUE DUP1 ISZERO PUSH2 0x10 JUMPI PUSH1 0x0 DUP1 REVERT JUMPDEST POP PUSH1 0x4 CALLDATASIZE LT PUSH2 0x4C JUMPI PUSH1 0x0 CALLDATALOAD PUSH1 0xE0 SHR DUP1 PUSH4 0x14A838B5 EQ PUSH2 0x51 JUMPI DUP1 PUSH4 0x2146F358 EQ PUSH2 0x6D JUMPI DUP1 PUSH4 0x2E28A7CA EQ PUSH2 0x89 JUMPI DUP1 PUSH4 0xA2415D38 EQ PUSH2 0xA5 JUMPI JUMPDEST PUSH1 0x0 DUP1 REVERT JUMPDEST PUSH2 0x6B PUSH1 0x4 DUP1 CALLDATASIZE SUB DUP2 ADD SWAP1 PUSH2 0x66 SWAP2 SWAP1 PUSH2 0x751 JUMP JUMPDEST PUSH2 0xD7 JUMP JUMPDEST STOP JUMPDEST PUSH2 0x87 PUSH1 0x4 DUP1 CALLDATASIZE SUB DUP2 ADD SWAP1 PUSH2 0x82 SWAP2 SWAP1 PUSH2 0x751 JUMP JUMPDEST PUSH2 0x1D2 JUMP JUMPDEST STOP JUMPDEST PUSH2 0xA3 PUSH1 0x4 DUP1 CALLDATASIZE SUB DUP2 ADD SWAP1 PUSH2 0x9E SWAP2 SWAP1 PUSH2 0x7F0 JUMP JUMPDEST PUSH2 0x2CD JUMP JUMPDEST STOP JUMPDEST PUSH2 0xBF PUSH1 0x4 DUP1 CALLDATASIZE SUB DUP2 ADD SWAP1 PUSH2 0xBA SWAP2 SWAP1 PUSH2 0x7F0 JUMP JUMPDEST PUSH2 0x39C JUMP JUMPDEST PUSH1 0x40 MLOAD PUSH2 0xCE SWAP4 SWAP3 SWAP2 SWAP1 PUSH2 0x8AB JUMP JUMPDEST PUSH1 0x40 MLOAD DUP1 SWAP2 SUB SWAP1 RETURN JUMPDEST PUSH1 0x0 DUP1 PUSH1 0x0 DUP7 DUP2 MSTORE PUSH1 0x20 ADD SWAP1 DUP2 MSTORE PUSH1 0x20 ADD PUSH1 0x0 KECCAK256 PUSH1 0x2 ADD SLOAD SUB PUSH2 0x12F JUMPI PUSH1 0x40 MLOAD PUSH32 0x8C379A000000000000000000000000000000000000000000000000000000000 DUP2 MSTORE PUSH1 0x4 ADD PUSH2 0x126 SWAP1 PUSH2 0x962 JUMP JUMPDEST PUSH1 0x40 MLOAD DUP1 SWAP2 SUB SWAP1 REVERT JUMPDEST PUSH1 0x40 MLOAD DUP1 PUSH1 0x60 ADD PUSH1 0x40 MSTORE DUP1 DUP5 DUP2 MSTORE PUSH1 0x20 ADD DUP4 DUP2 MSTORE PUSH1 0x20 ADD DUP3 DUP2 MSTORE POP PUSH1 0x0 DUP1 DUP7 DUP2 MSTORE PUSH1 0x20 ADD SWAP1 DUP2 MSTORE PUSH1 0x20 ADD PUSH1 0x0 KECCAK256 PUSH1 0x0 DUP3 ADD MLOAD DUP2 PUSH1 0x0 ADD SWAP1 DUP2 PUSH2 0x171 SWAP2 SWAP1 PUSH2 0xB8E JUMP JUMPDEST POP PUSH1 0x20 DUP3 ADD MLOAD DUP2 PUSH1 0x1 ADD SWAP1 DUP2 PUSH2 0x187 SWAP2 SWAP1 PUSH2 0xB8E JUMP JUMPDEST POP PUSH1 0x40 DUP3 ADD MLOAD DUP2 PUSH1 0x2 ADD SSTORE SWAP1 POP POP PUSH32 0x44E7731FAE3BA025F787CAA2158F68505A682777ECBBD475434E3646CCE47C78 DUP5 PUSH1 0x40 MLOAD PUSH2 0x1C4 SWAP2 SWAP1 PUSH2 0xC60 JUMP JUMPDEST PUSH1 0x40 MLOAD DUP1 SWAP2 SUB SWAP1 LOG1 POP POP POP POP JUMP JUMPDEST PUSH1 0x0 DUP1 PUSH1 0x0 DUP7 DUP2 MSTORE PUSH1 0x20 ADD SWAP1 DUP2 MSTORE PUSH1 0x20 ADD PUSH1 0x0 KECCAK256 PUSH1 0x2 ADD SLOAD EQ PUSH2 0x22A JUMPI PUSH1 0x40 MLOAD PUSH32 0x8C379A000000000000000000000000000000000000000000000000000000000 DUP2 MSTORE PUSH1 0x4 ADD PUSH2 0x221 SWAP1 PUSH2 0xCED JUMP JUMPDEST PUSH1 0x40 MLOAD DUP1 SWAP2 SUB SWAP1 REVERT JUMPDEST PUSH1 0x40 MLOAD DUP1 PUSH1 0x60 ADD PUSH1 0x40 MSTORE DUP1 DUP5 DUP2 MSTORE PUSH1 0x20 ADD DUP4 DUP2 MSTORE PUSH1 0x20 ADD DUP3 DUP2 MSTORE POP PUSH1 0x0 DUP1 DUP7 DUP2 MSTORE PUSH1 0x20 ADD SWAP1 DUP2 MSTORE PUSH1 0x20 ADD PUSH1 0x0 KECCAK256 PUSH1 0x0 DUP3 ADD MLOAD DUP2 PUSH1 0x0 ADD SWAP1 DUP2 PUSH2 0x26C SWAP2 SWAP1 PUSH2 0xB8E JUMP JUMPDEST POP PUSH1 0x20 DUP3 ADD MLOAD DUP2 PUSH1 0x1 ADD SWAP1 DUP2 PUSH2 0x282 SWAP2 SWAP1 PUSH2 0xB8E JUMP JUMPDEST POP PUSH1 0x40 DUP3 ADD MLOAD DUP2 PUSH1 0x2 ADD SSTORE SWAP1 POP POP PUSH32 0xC3DDE9843B95396168C31942D3A80644D111D2D9EF6EE6B8407B4E87D0DBA885 DUP5 PUSH1 0x40 MLOAD PUSH2 0x2BF SWAP2 SWAP1 PUSH2 0xC60 JUMP JUMPDEST PUSH1 0x40 MLOAD DUP1 SWAP2 SUB SWAP1 LOG1 POP POP POP POP JUMP JUMPDEST PUSH1 0x0 DUP1 PUSH1 0x0 DUP4 DUP2 MSTORE PUSH1 0x20 ADD SWAP1 DUP2 MSTORE PUSH1 0x20 ADD PUSH1 0x0 KECCAK256 PUSH1 0x2 ADD SLOAD SUB PUSH2 0x325 JUMPI PUSH1 0x40 MLOAD PUSH32 0x8C379A000000000000000000000000000000000000000000000000000000000 DUP2 MSTORE PUSH1 0x4 ADD PUSH2 0x31C SWAP1 PUSH2 0x962 JUMP JUMPDEST PUSH1 0x40 MLOAD DUP1 SWAP2 SUB SWAP1 REVERT JUMPDEST PUSH1 0x0 DUP1 DUP3 DUP2 MSTORE PUSH1 0x20 ADD SWAP1 DUP2 MSTORE PUSH1 0x20 ADD PUSH1 0x0 KECCAK256 PUSH1 0x0 DUP1 DUP3 ADD PUSH1 0x0 PUSH2 0x348 SWAP2 SWAP1 PUSH2 0x564 JUMP JUMPDEST PUSH1 0x1 DUP3 ADD PUSH1 0x0 PUSH2 0x358 SWAP2 SWAP1 PUSH2 0x564 JUMP JUMPDEST PUSH1 0x2 DUP3 ADD PUSH1 0x0 SWAP1 SSTORE POP POP PUSH32 0xC5AD12F4910935B5F48AFFB3DE5B21A9F5B2C2A8825C8E996F9571563C80E5A5 DUP2 PUSH1 0x40 MLOAD PUSH2 0x391 SWAP2 SWAP1 PUSH2 0xC60 JUMP JUMPDEST PUSH1 0x40 MLOAD DUP1 SWAP2 SUB SWAP1 LOG1 POP JUMP JUMPDEST PUSH1 0x60 DUP1 PUSH1 0x0 DUP1 PUSH1 0x0 DUP1 DUP7 DUP2 MSTORE PUSH1 0x20 ADD SWAP1 DUP2 MSTORE PUSH1 0x20 ADD PUSH1 0x0 KECCAK256 PUSH1 0x2 ADD SLOAD SUB PUSH2 0x3F8 JUMPI PUSH1 0x40 MLOAD PUSH32 0x8C379A000000000000000000000000000000000000000000000000000000000 DUP2 MSTORE PUSH1 0x4 ADD PUSH2 0x3EF SWAP1 PUSH2 0x962 JUMP JUMPDEST PUSH1 0x40 MLOAD DUP1 SWAP2 SUB SWAP1 REVERT JUMPDEST PUSH1 0x0 DUP1 PUSH1 0x0 DUP7 DUP2 MSTORE PUSH1 0x20 ADD SWAP1 DUP2 MSTORE PUSH1 0x20 ADD PUSH1 0x0 KECCAK256 PUSH1 0x40 MLOAD DUP1 PUSH1 0x60 ADD PUSH1 0x40 MSTORE SWAP1 DUP2 PUSH1 0x0 DUP3 ADD DUP1 SLOAD PUSH2 0x427 SWAP1 PUSH2 0x9B1 JUMP JUMPDEST DUP1 PUSH1 0x1F ADD PUSH1 0x20 DUP1 SWAP2 DIV MUL PUSH1 0x20 ADD PUSH1 0x40 MLOAD SWAP1 DUP2 ADD PUSH1 0x40 MSTORE DUP1 SWAP3 SWAP2 SWAP1 DUP2 DUP2 MSTORE PUSH1 0x20 ADD DUP3 DUP1 SLOAD PUSH2 0x453 SWAP1 PUSH2 0x9B1 JUMP JUMPDEST DUP1 ISZERO PUSH2 0x4A0 JUMPI DUP1 PUSH1 0x1F LT PUSH2 0x475 JUMPI PUSH2 0x100 DUP1 DUP4 SLOAD DIV MUL DUP4 MSTORE SWAP2 PUSH1 0x20 ADD SWAP2 PUSH2 0x4A0 JUMP JUMPDEST DUP3 ADD SWAP2 SWAP1 PUSH1 0x0 MSTORE PUSH1 0x20 PUSH1 0x0 KECCAK256 SWAP1 JUMPDEST DUP2 SLOAD DUP2 MSTORE SWAP1 PUSH1 0x1 ADD SWAP1 PUSH1 0x20 ADD DUP1 DUP4 GT PUSH2 0x483 JUMPI DUP3 SWAP1 SUB PUSH1 0x1F AND DUP3 ADD SWAP2 JUMPDEST POP POP POP POP POP DUP2 MSTORE PUSH1 0x20 ADD PUSH1 0x1 DUP3 ADD DUP1 SLOAD PUSH2 0x4B9 SWAP1 PUSH2 0x9B1 JUMP JUMPDEST DUP1 PUSH1 0x1F ADD PUSH1 0x20 DUP1 SWAP2 DIV MUL PUSH1 0x20 ADD PUSH1 0x40 MLOAD SWAP1 DUP2 ADD PUSH1 0x40 MSTORE DUP1 SWAP3 SWAP2 SWAP1 DUP2 DUP2 MSTORE PUSH1 0x20 ADD DUP3 DUP1 SLOAD PUSH2 0x4E5 SWAP1 PUSH2 0x9B1 JUMP JUMPDEST DUP1 ISZERO PUSH2 0x532 JUMPI DUP1 PUSH1 0x1F LT PUSH2 0x507 JUMPI PUSH2 0x100 DUP1 DUP4 SLOAD DIV MUL DUP4 MSTORE SWAP2 PUSH1 0x20 ADD SWAP2 PUSH2 0x532 JUMP JUMPDEST DUP3 ADD SWAP2 SWAP1 PUSH1 0x0 MSTORE PUSH1 0x20 PUSH1 0x0 KECCAK256 SWAP1 JUMPDEST DUP2 SLOAD DUP2 MSTORE SWAP1 PUSH1 0x1 ADD SWAP1 PUSH1 0x20 ADD DUP1 DUP4 GT PUSH2 0x515 JUMPI DUP3 SWAP1 SUB PUSH1 0x1F AND DUP3 ADD SWAP2 JUMPDEST POP POP POP POP POP DUP2 MSTORE PUSH1 0x20 ADD PUSH1 0x2 DUP3 ADD SLOAD DUP2 MSTORE POP POP SWAP1 POP DUP1 PUSH1 0x0 ADD MLOAD DUP2 PUSH1 0x20 ADD MLOAD DUP3 PUSH1 0x40 ADD MLOAD SWAP4 POP SWAP4 POP SWAP4 POP POP SWAP2 SWAP4 SWAP1 SWAP3 POP JUMP JUMPDEST POP DUP1 SLOAD PUSH2 0x570 SWAP1 PUSH2 0x9B1 JUMP JUMPDEST PUSH1 0x0 DUP3 SSTORE DUP1 PUSH1 0x1F LT PUSH2 0x582 JUMPI POP PUSH2 0x5A1 JUMP JUMPDEST PUSH1 0x1F ADD PUSH1 0x20 SWAP1 DIV SWAP1 PUSH1 0x0 MSTORE PUSH1 0x20 PUSH1 0x0 KECCAK256 SWAP1 DUP2 ADD SWAP1 PUSH2 0x5A0 SWAP2 SWAP1 PUSH2 0x5A4 JUMP JUMPDEST JUMPDEST POP JUMP JUMPDEST JUMPDEST DUP1 DUP3 GT ISZERO PUSH2 0x5BD JUMPI PUSH1 0x0 DUP2 PUSH1 0x0 SWAP1 SSTORE POP PUSH1 0x1 ADD PUSH2 0x5A5 JUMP JUMPDEST POP SWAP1 JUMP JUMPDEST PUSH1 0x0 PUSH1 0x40 MLOAD SWAP1 POP SWAP1 JUMP JUMPDEST PUSH1 0x0 DUP1 REVERT JUMPDEST PUSH1 0x0 DUP1 REVERT JUMPDEST PUSH1 0x0 DUP2 SWAP1 POP SWAP2 SWAP1 POP JUMP JUMPDEST PUSH2 0x5E8 DUP2 PUSH2 0x5D5 JUMP JUMPDEST DUP2 EQ PUSH2 0x5F3 JUMPI PUSH1 0x0 DUP1 REVERT JUMPDEST POP JUMP JUMPDEST PUSH1 0x0 DUP2 CALLDATALOAD SWAP1 POP PUSH2 0x605 DUP2 PUSH2 0x5DF JUMP JUMPDEST SWAP3 SWAP2 POP POP JUMP JUMPDEST PUSH1 0x0 DUP1 REVERT JUMPDEST PUSH1 0x0 DUP1 REVERT JUMPDEST PUSH1 0x0 PUSH1 0x1F NOT PUSH1 0x1F DUP4 ADD AND SWAP1 POP SWAP2 SWAP1 POP JUMP JUMPDEST PUSH32 0x4E487B7100000000000000000000000000000000000000000000000000000000 PUSH1 0x0 MSTORE PUSH1 0x41 PUSH1 0x4 MSTORE PUSH1 0x24 PUSH1 0x0 REVERT JUMPDEST PUSH2 0x65E DUP3 PUSH2 0x615 JUMP JUMPDEST DUP2 ADD DUP2 DUP2 LT PUSH8 0xFFFFFFFFFFFFFFFF DUP3 GT OR ISZERO PUSH2 0x67D JUMPI PUSH2 0x67C PUSH2 0x626 JUMP JUMPDEST JUMPDEST DUP1 PUSH1 0x40 MSTORE POP POP POP JUMP JUMPDEST PUSH1 0x0 PUSH2 0x690 PUSH2 0x5C1 JUMP JUMPDEST SWAP1 POP PUSH2 0x69C DUP3 DUP3 PUSH2 0x655 JUMP JUMPDEST SWAP2 SWAP1 POP JUMP JUMPDEST PUSH1 0x0 PUSH8 0xFFFFFFFFFFFFFFFF DUP3 GT ISZERO PUSH2 0x6BC JUMPI PUSH2 0x6BB PUSH2 0x626 JUMP JUMPDEST JUMPDEST PUSH2 0x6C5 DUP3 PUSH2 0x615 JUMP JUMPDEST SWAP1 POP PUSH1 0x20 DUP2 ADD SWAP1 POP SWAP2 SWAP1 POP JUMP JUMPDEST DUP3 DUP2 DUP4 CALLDATACOPY PUSH1 0x0 DUP4 DUP4 ADD MSTORE POP POP POP JUMP JUMPDEST PUSH1 0x0 PUSH2 0x6F4 PUSH2 0x6EF DUP5 PUSH2 0x6A1 JUMP JUMPDEST PUSH2 0x686 JUMP JUMPDEST SWAP1 POP DUP3 DUP2 MSTORE PUSH1 0x20 DUP2 ADD DUP5 DUP5 DUP5 ADD GT ISZERO PUSH2 0x710 JUMPI PUSH2 0x70F PUSH2 0x610 JUMP JUMPDEST JUMPDEST PUSH2 0x71B DUP5 DUP3 DUP6 PUSH2 0x6D2 JUMP JUMPDEST POP SWAP4 SWAP3 POP POP POP JUMP JUMPDEST PUSH1 0x0 DUP3 PUSH1 0x1F DUP4 ADD SLT PUSH2 0x738 JUMPI PUSH2 0x737 PUSH2 0x60B JUMP JUMPDEST JUMPDEST DUP2 CALLDATALOAD PUSH2 0x748 DUP5 DUP3 PUSH1 0x20 DUP7 ADD PUSH2 0x6E1 JUMP JUMPDEST SWAP2 POP POP SWAP3 SWAP2 POP POP JUMP JUMPDEST PUSH1 0x0 DUP1 PUSH1 0x0 DUP1 PUSH1 0x80 DUP6 DUP8 SUB SLT ISZERO PUSH2 0x76B JUMPI PUSH2 0x76A PUSH2 0x5CB JUMP JUMPDEST JUMPDEST PUSH1 0x0 PUSH2 0x779 DUP8 DUP3 DUP9 ADD PUSH2 0x5F6 JUMP JUMPDEST SWAP5 POP POP PUSH1 0x20 DUP6 ADD CALLDATALOAD PUSH8 0xFFFFFFFFFFFFFFFF DUP2 GT ISZERO PUSH2 0x79A JUMPI PUSH2 0x799 PUSH2 0x5D0 JUMP JUMPDEST JUMPDEST PUSH2 0x7A6 DUP8 DUP3 DUP9 ADD PUSH2 0x723 JUMP JUMPDEST SWAP4 POP POP PUSH1 0x40 DUP6 ADD CALLDATALOAD PUSH8 0xFFFFFFFFFFFFFFFF DUP2 GT ISZERO PUSH2 0x7C7 JUMPI PUSH2 0x7C6 PUSH2 0x5D0 JUMP JUMPDEST JUMPDEST PUSH2 0x7D3 DUP8 DUP3 DUP9 ADD PUSH2 0x723 JUMP JUMPDEST SWAP3 POP POP PUSH1 0x60 PUSH2 0x7E4 DUP8 DUP3 DUP9 ADD PUSH2 0x5F6 JUMP JUMPDEST SWAP2 POP POP SWAP3 SWAP6 SWAP2 SWAP5 POP SWAP3 POP JUMP JUMPDEST PUSH1 0x0 PUSH1 0x20 DUP3 DUP5 SUB SLT ISZERO PUSH2 0x806 JUMPI PUSH2 0x805 PUSH2 0x5CB JUMP JUMPDEST JUMPDEST PUSH1 0x0 PUSH2 0x814 DUP5 DUP3 DUP6 ADD PUSH2 0x5F6 JUMP JUMPDEST SWAP2 POP POP SWAP3 SWAP2 POP POP JUMP JUMPDEST PUSH1 0x0 DUP2 MLOAD SWAP1 POP SWAP2 SWAP1 POP JUMP JUMPDEST PUSH1 0x0 DUP3 DUP3 MSTORE PUSH1 0x20 DUP3 ADD SWAP1 POP SWAP3 SWAP2 POP POP JUMP JUMPDEST PUSH1 0x0 JUMPDEST DUP4 DUP2 LT ISZERO PUSH2 0x857 JUMPI DUP1 DUP3 ADD MLOAD DUP2 DUP5 ADD MSTORE PUSH1 0x20 DUP2 ADD SWAP1 POP PUSH2 0x83C JUMP JUMPDEST PUSH1 0x0 DUP5 DUP5 ADD MSTORE POP POP POP POP JUMP JUMPDEST PUSH1 0x0 PUSH2 0x86E DUP3 PUSH2 0x81D JUMP JUMPDEST PUSH2 0x878 DUP2 DUP6 PUSH2 0x828 JUMP JUMPDEST SWAP4 POP PUSH2 0x888 DUP2 DUP6 PUSH1 0x20 DUP7 ADD PUSH2 0x839 JUMP JUMPDEST PUSH2 0x891 DUP2 PUSH2 0x615 JUMP JUMPDEST DUP5 ADD SWAP2 POP POP SWAP3 SWAP2 POP POP JUMP JUMPDEST PUSH2 0x8A5 DUP2 PUSH2 0x5D5 JUMP JUMPDEST DUP3 MSTORE POP POP JUMP JUMPDEST PUSH1 0x0 PUSH1 0x60 DUP3 ADD SWAP1 POP DUP2 DUP2 SUB PUSH1 0x0 DUP4 ADD MSTORE PUSH2 0x8C5 DUP2 DUP7 PUSH2 0x863 JUMP JUMPDEST SWAP1 POP DUP2 DUP2 SUB PUSH1 0x20 DUP4 ADD MSTORE PUSH2 0x8D9 DUP2 DUP6 PUSH2 0x863 JUMP JUMPDEST SWAP1 POP PUSH2 0x8E8 PUSH1 0x40 DUP4 ADD DUP5 PUSH2 0x89C JUMP JUMPDEST SWAP5 SWAP4 POP POP POP POP JUMP JUMPDEST PUSH32 0x42756B752064656E67616E204953424E20746572736562757420746964616B20 PUSH1 0x0 DUP3 ADD MSTORE PUSH32 0x646974656D756B616E2E00000000000000000000000000000000000000000000 PUSH1 0x20 DUP3 ADD MSTORE POP JUMP JUMPDEST PUSH1 0x0 PUSH2 0x94C PUSH1 0x2A DUP4 PUSH2 0x828 JUMP JUMPDEST SWAP2 POP PUSH2 0x957 DUP3 PUSH2 0x8F0 JUMP JUMPDEST PUSH1 0x40 DUP3 ADD SWAP1 POP SWAP2 SWAP1 POP JUMP JUMPDEST PUSH1 0x0 PUSH1 0x20 DUP3 ADD SWAP1 POP DUP2 DUP2 SUB PUSH1 0x0 DUP4 ADD MSTORE PUSH2 0x97B DUP2 PUSH2 0x93F JUMP JUMPDEST SWAP1 POP SWAP2 SWAP1 POP JUMP JUMPDEST PUSH32 0x4E487B7100000000000000000000000000000000000000000000000000000000 PUSH1 0x0 MSTORE PUSH1 0x22 PUSH1 0x4 MSTORE PUSH1 0x24 PUSH1 0x0 REVERT JUMPDEST PUSH1 0x0 PUSH1 0x2 DUP3 DIV SWAP1 POP PUSH1 0x1 DUP3 AND DUP1 PUSH2 0x9C9 JUMPI PUSH1 0x7F DUP3 AND SWAP2 POP JUMPDEST PUSH1 0x20 DUP3 LT DUP2 SUB PUSH2 0x9DC JUMPI PUSH2 0x9DB PUSH2 0x982 JUMP JUMPDEST JUMPDEST POP SWAP2 SWAP1 POP JUMP JUMPDEST PUSH1 0x0 DUP2 SWAP1 POP DUP2 PUSH1 0x0 MSTORE PUSH1 0x20 PUSH1 0x0 KECCAK256 SWAP1 POP SWAP2 SWAP1 POP JUMP JUMPDEST PUSH1 0x0 PUSH1 0x20 PUSH1 0x1F DUP4 ADD DIV SWAP1 POP SWAP2 SWAP1 POP JUMP JUMPDEST PUSH1 0x0 DUP3 DUP3 SHL SWAP1 POP SWAP3 SWAP2 POP POP JUMP JUMPDEST PUSH1 0x0 PUSH1 0x8 DUP4 MUL PUSH2 0xA44 PUSH32 0xFFFFFFFFFFFFFFFFFFFFFFFFFFFFFFFFFFFFFFFFFFFFFFFFFFFFFFFFFFFFFFFF DUP3 PUSH2 0xA07 JUMP JUMPDEST PUSH2 0xA4E DUP7 DUP4 PUSH2 0xA07 JUMP JUMPDEST SWAP6 POP DUP1 NOT DUP5 AND SWAP4 POP DUP1 DUP7 AND DUP5 OR SWAP3 POP POP POP SWAP4 SWAP3 POP POP POP JUMP JUMPDEST PUSH1 0x0 DUP2 SWAP1 POP SWAP2 SWAP1 POP JUMP JUMPDEST PUSH1 0x0 PUSH2 0xA8B PUSH2 0xA86 PUSH2 0xA81 DUP5 PUSH2 0x5D5 JUMP JUMPDEST PUSH2 0xA66 JUMP JUMPDEST PUSH2 0x5D5 JUMP JUMPDEST SWAP1 POP SWAP2 SWAP1 POP JUMP JUMPDEST PUSH1 0x0 DUP2 SWAP1 POP SWAP2 SWAP1 POP JUMP JUMPDEST PUSH2 0xAA5 DUP4 PUSH2 0xA70 JUMP JUMPDEST PUSH2 0xAB9 PUSH2 0xAB1 DUP3 PUSH2 0xA92 JUMP JUMPDEST DUP5 DUP5 SLOAD PUSH2 0xA14 JUMP JUMPDEST DUP3 SSTORE POP POP POP POP JUMP JUMPDEST PUSH1 0x0 SWAP1 JUMP JUMPDEST PUSH2 0xACE PUSH2 0xAC1 JUMP JUMPDEST PUSH2 0xAD9 DUP2 DUP5 DUP5 PUSH2 0xA9C JUMP JUMPDEST POP POP POP JUMP JUMPDEST JUMPDEST DUP2 DUP2 LT ISZERO PUSH2 0xAFD JUMPI PUSH2 0xAF2 PUSH1 0x0 DUP3 PUSH2 0xAC6 JUMP JUMPDEST PUSH1 0x1 DUP2 ADD SWAP1 POP PUSH2 0xADF JUMP JUMPDEST POP POP JUMP JUMPDEST PUSH1 0x1F DUP3 GT ISZERO PUSH2 0xB42 JUMPI PUSH2 0xB13 DUP2 PUSH2 0x9E2 JUMP JUMPDEST PUSH2 0xB1C DUP5 PUSH2 0x9F7 JUMP JUMPDEST DUP2 ADD PUSH1 0x20 DUP6 LT ISZERO PUSH2 0xB2B JUMPI DUP2 SWAP1 POP JUMPDEST PUSH2 0xB3F PUSH2 0xB37 DUP6 PUSH2 0x9F7 JUMP JUMPDEST DUP4 ADD DUP3 PUSH2 0xADE JUMP JUMPDEST POP POP JUMPDEST POP POP POP JUMP JUMPDEST PUSH1 0x0 DUP3 DUP3 SHR SWAP1 POP SWAP3 SWAP2 POP POP JUMP JUMPDEST PUSH1 0x0 PUSH2 0xB65 PUSH1 0x0 NOT DUP5 PUSH1 0x8 MUL PUSH2 0xB47 JUMP JUMPDEST NOT DUP1 DUP4 AND SWAP2 POP POP SWAP3 SWAP2 POP POP JUMP JUMPDEST PUSH1 0x0 PUSH2 0xB7E DUP4 DUP4 PUSH2 0xB54 JUMP JUMPDEST SWAP2 POP DUP3 PUSH1 0x2 MUL DUP3 OR SWAP1 POP SWAP3 SWAP2 POP POP JUMP JUMPDEST PUSH2 0xB97 DUP3 PUSH2 0x81D JUMP JUMPDEST PUSH8 0xFFFFFFFFFFFFFFFF DUP2 GT ISZERO PUSH2 0xBB0 JUMPI PUSH2 0xBAF PUSH2 0x626 JUMP JUMPDEST JUMPDEST PUSH2 0xBBA DUP3 SLOAD PUSH2 0x9B1 JUMP JUMPDEST PUSH2 0xBC5 DUP3 DUP3 DUP6 PUSH2 0xB01 JUMP JUMPDEST PUSH1 0x0 PUSH1 0x20 SWAP1 POP PUSH1 0x1F DUP4 GT PUSH1 0x1 DUP2 EQ PUSH2 0xBF8 JUMPI PUSH1 0x0 DUP5 ISZERO PUSH2 0xBE6 JUMPI DUP3 DUP8 ADD MLOAD SWAP1 POP JUMPDEST PUSH2 0xBF0 DUP6 DUP3 PUSH2 0xB72 JUMP JUMPDEST DUP7 SSTORE POP PUSH2 0xC58 JUMP JUMPDEST PUSH1 0x1F NOT DUP5 AND PUSH2 0xC06 DUP7 PUSH2 0x9E2 JUMP JUMPDEST PUSH1 0x0 JUMPDEST DUP3 DUP2 LT ISZERO PUSH2 0xC2E JUMPI DUP5 DUP10 ADD MLOAD DUP3 SSTORE PUSH1 0x1 DUP3 ADD SWAP2 POP PUSH1 0x20 DUP6 ADD SWAP5 POP PUSH1 0x20 DUP2 ADD SWAP1 POP PUSH2 0xC09 JUMP JUMPDEST DUP7 DUP4 LT ISZERO PUSH2 0xC4B JUMPI DUP5 DUP10 ADD MLOAD PUSH2 0xC47 PUSH1 0x1F DUP10 AND DUP3 PUSH2 0xB54 JUMP JUMPDEST DUP4 SSTORE POP JUMPDEST PUSH1 0x1 PUSH1 0x2 DUP9 MUL ADD DUP9 SSTORE POP POP POP JUMPDEST POP POP POP POP POP POP JUMP JUMPDEST PUSH1 0x0 PUSH1 0x20 DUP3 ADD SWAP1 POP PUSH2 0xC75 PUSH1 0x0 DUP4 ADD DUP5 PUSH2 0x89C JUMP JUMPDEST SWAP3 SWAP2 POP POP JUMP JUMPDEST PUSH32 0x42756B752064656E67616E204953424E20746572736562757420737564616820 PUSH1 0x0 DUP3 ADD MSTORE PUSH32 0x6164612E00000000000000000000000000000000000000000000000000000000 PUSH1 0x20 DUP3 ADD MSTORE POP JUMP JUMPDEST PUSH1 0x0 PUSH2 0xCD7 PUSH1 0x24 DUP4 PUSH2 0x828 JUMP JUMPDEST SWAP2 POP PUSH2 0xCE2 DUP3 PUSH2 0xC7B JUMP JUMPDEST PUSH1 0x40 DUP3 ADD SWAP1 POP SWAP2 SWAP1 POP JUMP JUMPDEST PUSH1 0x0 PUSH1 0x20 DUP3 ADD SWAP1 POP DUP2 DUP2 SUB PUSH1 0x0 DUP4 ADD MSTORE PUSH2 0xD06 DUP2 PUSH2 0xCCA JUMP JUMPDEST SWAP1 POP SWAP2 SWAP1 POP JUMP INVALID LOG2 PUSH5 0x6970667358 0x22 SLT KECCAK256 PUSH21 0x3C3CD53A8F8DECD7C1C4F848623CB0DE4417FB9BE2 MULMOD CALLER PUSH31 0x9DDB983B8D167F64736F6C6343000812003300000000000000000000000000 "
		},
		"gasEstimates": {
			"creation": {
				"codeDepositCost": "679000",
				"executionCost": "715",
				"totalCost": "679715"
			},
			"external": {
				"getBukuByISBN(uint256)": "infinite",
				"hapusBuku(uint256)": "infinite",
				"tambahBuku(uint256,string,string,uint256)": "infinite",
				"updateBuku(uint256,string,string,uint256)": "infinite"
			}
		},
		"methodIdentifiers": {
			"getBukuByISBN(uint256)": "a2415d38",
			"hapusBuku(uint256)": "2e28a7ca",
			"tambahBuku(uint256,string,string,uint256)": "2146f358",
			"updateBuku(uint256,string,string,uint256)": "14a838b5"
		}
	},
	"abi": [
		{
			"anonymous": false,
			"inputs": [
				{
					"indexed": false,
					"internalType": "uint256",
					"name": "isbn",
					"type": "uint256"
				}
			],
			"name": "BukuDihapus",
			"type": "event"
		},
		{
			"anonymous": false,
			"inputs": [
				{
					"indexed": false,
					"internalType": "uint256",
					"name": "isbn",
					"type": "uint256"
				}
			],
			"name": "BukuDitambahkan",
			"type": "event"
		},
		{
			"anonymous": false,
			"inputs": [
				{
					"indexed": false,
					"internalType": "uint256",
					"name": "isbn",
					"type": "uint256"
				}
			],
			"name": "BukuDiupdate",
			"type": "event"
		},
		{
			"inputs": [
				{
					"internalType": "uint256",
					"name": "_isbn",
					"type": "uint256"
				}
			],
			"name": "getBukuByISBN",
			"outputs": [
				{
					"internalType": "string",
					"name": "",
					"type": "string"
				},
				{
					"internalType": "string",
					"name": "",
					"type": "string"
				},
				{
					"internalType": "uint256",
					"name": "",
					"type": "uint256"
				}
			],
			"stateMutability": "view",
			"type": "function"
		},
		{
			"inputs": [
				{
					"internalType": "uint256",
					"name": "_isbn",
					"type": "uint256"
				}
			],
			"name": "hapusBuku",
			"outputs": [],
			"stateMutability": "nonpayable",
			"type": "function"
		},
		{
			"inputs": [
				{
					"internalType": "uint256",
					"name": "_isbn",
					"type": "uint256"
				},
				{
					"internalType": "string",
					"name": "_judul",
					"type": "string"
				},
				{
					"internalType": "string",
					"name": "_penulis",
					"type": "string"
				},
				{
					"internalType": "uint256",
					"name": "_tahunTerbit",
					"type": "uint256"
				}
			],
			"name": "tambahBuku",
			"outputs": [],
			"stateMutability": "nonpayable",
			"type": "function"
		},
		{
			"inputs": [
				{
					"internalType": "uint256",
					"name": "_isbn",
					"type": "uint256"
				},
				{
					"internalType": "string",
					"name": "_judul",
					"type": "string"
				},
				{
					"internalType": "string",
					"name": "_penulis",
					"type": "string"
				},
				{
					"internalType": "uint256",
					"name": "_tahunTerbit",
					"type": "uint256"
				}
			],
			"name": "updateBuku",
			"outputs": [],
			"stateMutability": "nonpayable",
			"type": "function"
		}
	]
}