{
	"data": {
		"bytecode": {
			"linkReferences": {},
			"object": "608060405234801561000f575f80fd5b50610af18061001d5f395ff3fe608060405234801561000f575f80fd5b506004361061004a575f3560e01c80632146f3581461004e57806363ece59b1461006a578063a31f22d71461009c578063d826085a146100b8575b5f80fd5b610068600480360381019061006391906105d1565b6100d4565b005b610084600480360381019061007f919061066d565b610198565b60405161009393929190610721565b60405180910390f35b6100b660048036038101906100b191906105d1565b6102c9565b005b6100d260048036038101906100cd91906105d1565b61038d565b005b6107e15f808681526020019081526020015f20600201541461012b576040517f08c379a0000000000000000000000000000000000000000000000000000000008152600401610122906107d4565b60405180910390fd5b5f6040518060600160405280858152602001848152602001838152509050805f808781526020019081526020015f205f820151815f01908161016d91906109ec565b50602082015181600101908161018391906109ec565b50604082015181600201559050505050505050565b5f602052805f5260405f205f91509050805f0180546101b69061081f565b80601f01602080910402602001604051908101604052809291908181526020018280546101e29061081f565b801561022d5780601f106102045761010080835404028352916020019161022d565b820191905f5260205f20905b81548152906001019060200180831161021057829003601f168201915b5050505050908060010180546102429061081f565b80601f016020809104026020016040519081016040528092919081815260200182805461026e9061081f565b80156102b95780601f10610290576101008083540402835291602001916102b9565b820191905f5260205f20905b81548152906001019060200180831161029c57829003601f168201915b5050505050908060020154905083565b6107e15f808681526020019081526020015f206002015414610320576040517f08c379a0000000000000000000000000000000000000000000000000000000008152600401610317906107d4565b60405180910390fd5b5f6040518060600160405280858152602001848152602001838152509050805f808781526020019081526020015f205f820151815f01908161036291906109ec565b50602082015181600101908161037891906109ec565b50604082015181600201559050505050505050565b6107e15f808681526020019081526020015f2060020154146103e4576040517f08c379a00000000000000000000000000000000000000000000000000000000081526004016103db906107d4565b60405180910390fd5b5f6040518060600160405280858152602001848152602001838152509050805f808781526020019081526020015f205f820151815f01908161042691906109ec565b50602082015181600101908161043c91906109ec565b50604082015181600201559050505050505050565b5f604051905090565b5f80fd5b5f80fd5b5f819050919050565b61047481610462565b811461047e575f80fd5b50565b5f8135905061048f8161046b565b92915050565b5f80fd5b5f80fd5b5f601f19601f8301169050919050565b7f4e487b71000000000000000000000000000000000000000000000000000000005f52604160045260245ffd5b6104e38261049d565b810181811067ffffffffffffffff82111715610502576105016104ad565b5b80604052505050565b5f610514610451565b905061052082826104da565b919050565b5f67ffffffffffffffff82111561053f5761053e6104ad565b5b6105488261049d565b9050602081019050919050565b828183375f83830152505050565b5f61057561057084610525565b61050b565b90508281526020810184848401111561059157610590610499565b5b61059c848285610555565b509392505050565b5f82601f8301126105b8576105b7610495565b5b81356105c8848260208601610563565b91505092915050565b5f805f80608085870312156105e9576105e861045a565b5b5f6105f687828801610481565b945050602085013567ffffffffffffffff8111156106175761061661045e565b5b610623878288016105a4565b935050604085013567ffffffffffffffff8111156106445761064361045e565b5b610650878288016105a4565b925050606061066187828801610481565b91505092959194509250565b5f602082840312156106825761068161045a565b5b5f61068f84828501610481565b91505092915050565b5f81519050919050565b5f82825260208201905092915050565b5f5b838110156106cf5780820151818401526020810190506106b4565b5f8484015250505050565b5f6106e482610698565b6106ee81856106a2565b93506106fe8185602086016106b2565b6107078161049d565b840191505092915050565b61071b81610462565b82525050565b5f6060820190508181035f83015261073981866106da565b9050818103602083015261074d81856106da565b905061075c6040830184610712565b949350505050565b7f42756b752064656e67616e204953424e207465727365627574207375646168205f8201527f6164610000000000000000000000000000000000000000000000000000000000602082015250565b5f6107be6023836106a2565b91506107c982610764565b604082019050919050565b5f6020820190508181035f8301526107eb816107b2565b9050919050565b7f4e487b71000000000000000000000000000000000000000000000000000000005f52602260045260245ffd5b5f600282049050600182168061083657607f821691505b602082108103610849576108486107f2565b5b50919050565b5f819050815f5260205f209050919050565b5f6020601f8301049050919050565b5f82821b905092915050565b5f600883026108ab7fffffffffffffffffffffffffffffffffffffffffffffffffffffffffffffffff82610870565b6108b58683610870565b95508019841693508086168417925050509392505050565b5f819050919050565b5f6108f06108eb6108e684610462565b6108cd565b610462565b9050919050565b5f819050919050565b610909836108d6565b61091d610915826108f7565b84845461087c565b825550505050565b5f90565b610931610925565b61093c818484610900565b505050565b5b8181101561095f576109545f82610929565b600181019050610942565b5050565b601f8211156109a4576109758161084f565b61097e84610861565b8101602085101561098d578190505b6109a161099985610861565b830182610941565b50505b505050565b5f82821c905092915050565b5f6109c45f19846008026109a9565b1980831691505092915050565b5f6109dc83836109b5565b9150826002028217905092915050565b6109f582610698565b67ffffffffffffffff811115610a0e57610a0d6104ad565b5b610a18825461081f565b610a23828285610963565b5f60209050601f831160018114610a54575f8415610a42578287015190505b610a4c85826109d1565b865550610ab3565b601f198416610a628661084f565b5f5b82811015610a8957848901518255600182019150602085019450602081019050610a64565b86831015610aa65784890151610aa2601f8916826109b5565b8355505b6001600288020188555050505b50505050505056fea264697066735822122055c05b728ce548d12df1ef9a7d8b30bdc0c91ff63a8e443c94cd9c2f3460c8e064736f6c63430008150033",
			"opcodes": "PUSH1 0x80 PUSH1 0x40 MSTORE CALLVALUE DUP1 ISZERO PUSH2 0xF JUMPI PUSH0 DUP1 REVERT JUMPDEST POP PUSH2 0xAF1 DUP1 PUSH2 0x1D PUSH0 CODECOPY PUSH0 RETURN INVALID PUSH1 0x80 PUSH1 0x40 MSTORE CALLVALUE DUP1 ISZERO PUSH2 0xF JUMPI PUSH0 DUP1 REVERT JUMPDEST POP PUSH1 0x4 CALLDATASIZE LT PUSH2 0x4A JUMPI PUSH0 CALLDATALOAD PUSH1 0xE0 SHR DUP1 PUSH4 0x2146F358 EQ PUSH2 0x4E JUMPI DUP1 PUSH4 0x63ECE59B EQ PUSH2 0x6A JUMPI DUP1 PUSH4 0xA31F22D7 EQ PUSH2 0x9C JUMPI DUP1 PUSH4 0xD826085A EQ PUSH2 0xB8 JUMPI JUMPDEST PUSH0 DUP1 REVERT JUMPDEST PUSH2 0x68 PUSH1 0x4 DUP1 CALLDATASIZE SUB DUP2 ADD SWAP1 PUSH2 0x63 SWAP2 SWAP1 PUSH2 0x5D1 JUMP JUMPDEST PUSH2 0xD4 JUMP JUMPDEST STOP JUMPDEST PUSH2 0x84 PUSH1 0x4 DUP1 CALLDATASIZE SUB DUP2 ADD SWAP1 PUSH2 0x7F SWAP2 SWAP1 PUSH2 0x66D JUMP JUMPDEST PUSH2 0x198 JUMP JUMPDEST PUSH1 0x40 MLOAD PUSH2 0x93 SWAP4 SWAP3 SWAP2 SWAP1 PUSH2 0x721 JUMP JUMPDEST PUSH1 0x40 MLOAD DUP1 SWAP2 SUB SWAP1 RETURN JUMPDEST PUSH2 0xB6 PUSH1 0x4 DUP1 CALLDATASIZE SUB DUP2 ADD SWAP1 PUSH2 0xB1 SWAP2 SWAP1 PUSH2 0x5D1 JUMP JUMPDEST PUSH2 0x2C9 JUMP JUMPDEST STOP JUMPDEST PUSH2 0xD2 PUSH1 0x4 DUP1 CALLDATASIZE SUB DUP2 ADD SWAP1 PUSH2 0xCD SWAP2 SWAP1 PUSH2 0x5D1 JUMP JUMPDEST PUSH2 0x38D JUMP JUMPDEST STOP JUMPDEST PUSH2 0x7E1 PUSH0 DUP1 DUP7 DUP2 MSTORE PUSH1 0x20 ADD SWAP1 DUP2 MSTORE PUSH1 0x20 ADD PUSH0 KECCAK256 PUSH1 0x2 ADD SLOAD EQ PUSH2 0x12B JUMPI PUSH1 0x40 MLOAD PUSH32 0x8C379A000000000000000000000000000000000000000000000000000000000 DUP2 MSTORE PUSH1 0x4 ADD PUSH2 0x122 SWAP1 PUSH2 0x7D4 JUMP JUMPDEST PUSH1 0x40 MLOAD DUP1 SWAP2 SUB SWAP1 REVERT JUMPDEST PUSH0 PUSH1 0x40 MLOAD DUP1 PUSH1 0x60 ADD PUSH1 0x40 MSTORE DUP1 DUP6 DUP2 MSTORE PUSH1 0x20 ADD DUP5 DUP2 MSTORE PUSH1 0x20 ADD DUP4 DUP2 MSTORE POP SWAP1 POP DUP1 PUSH0 DUP1 DUP8 DUP2 MSTORE PUSH1 0x20 ADD SWAP1 DUP2 MSTORE PUSH1 0x20 ADD PUSH0 KECCAK256 PUSH0 DUP3 ADD MLOAD DUP2 PUSH0 ADD SWAP1 DUP2 PUSH2 0x16D SWAP2 SWAP1 PUSH2 0x9EC JUMP JUMPDEST POP PUSH1 0x20 DUP3 ADD MLOAD DUP2 PUSH1 0x1 ADD SWAP1 DUP2 PUSH2 0x183 SWAP2 SWAP1 PUSH2 0x9EC JUMP JUMPDEST POP PUSH1 0x40 DUP3 ADD MLOAD DUP2 PUSH1 0x2 ADD SSTORE SWAP1 POP POP POP POP POP POP POP JUMP JUMPDEST PUSH0 PUSH1 0x20 MSTORE DUP1 PUSH0 MSTORE PUSH1 0x40 PUSH0 KECCAK256 PUSH0 SWAP2 POP SWAP1 POP DUP1 PUSH0 ADD DUP1 SLOAD PUSH2 0x1B6 SWAP1 PUSH2 0x81F JUMP JUMPDEST DUP1 PUSH1 0x1F ADD PUSH1 0x20 DUP1 SWAP2 DIV MUL PUSH1 0x20 ADD PUSH1 0x40 MLOAD SWAP1 DUP2 ADD PUSH1 0x40 MSTORE DUP1 SWAP3 SWAP2 SWAP1 DUP2 DUP2 MSTORE PUSH1 0x20 ADD DUP3 DUP1 SLOAD PUSH2 0x1E2 SWAP1 PUSH2 0x81F JUMP JUMPDEST DUP1 ISZERO PUSH2 0x22D JUMPI DUP1 PUSH1 0x1F LT PUSH2 0x204 JUMPI PUSH2 0x100 DUP1 DUP4 SLOAD DIV MUL DUP4 MSTORE SWAP2 PUSH1 0x20 ADD SWAP2 PUSH2 0x22D JUMP JUMPDEST DUP3 ADD SWAP2 SWAP1 PUSH0 MSTORE PUSH1 0x20 PUSH0 KECCAK256 SWAP1 JUMPDEST DUP2 SLOAD DUP2 MSTORE SWAP1 PUSH1 0x1 ADD SWAP1 PUSH1 0x20 ADD DUP1 DUP4 GT PUSH2 0x210 JUMPI DUP3 SWAP1 SUB PUSH1 0x1F AND DUP3 ADD SWAP2 JUMPDEST POP POP POP POP POP SWAP1 DUP1 PUSH1 0x1 ADD DUP1 SLOAD PUSH2 0x242 SWAP1 PUSH2 0x81F JUMP JUMPDEST DUP1 PUSH1 0x1F ADD PUSH1 0x20 DUP1 SWAP2 DIV MUL PUSH1 0x20 ADD PUSH1 0x40 MLOAD SWAP1 DUP2 ADD PUSH1 0x40 MSTORE DUP1 SWAP3 SWAP2 SWAP1 DUP2 DUP2 MSTORE PUSH1 0x20 ADD DUP3 DUP1 SLOAD PUSH2 0x26E SWAP1 PUSH2 0x81F JUMP JUMPDEST DUP1 ISZERO PUSH2 0x2B9 JUMPI DUP1 PUSH1 0x1F LT PUSH2 0x290 JUMPI PUSH2 0x100 DUP1 DUP4 SLOAD DIV MUL DUP4 MSTORE SWAP2 PUSH1 0x20 ADD SWAP2 PUSH2 0x2B9 JUMP JUMPDEST DUP3 ADD SWAP2 SWAP1 PUSH0 MSTORE PUSH1 0x20 PUSH0 KECCAK256 SWAP1 JUMPDEST DUP2 SLOAD DUP2 MSTORE SWAP1 PUSH1 0x1 ADD SWAP1 PUSH1 0x20 ADD DUP1 DUP4 GT PUSH2 0x29C JUMPI DUP3 SWAP1 SUB PUSH1 0x1F AND DUP3 ADD SWAP2 JUMPDEST POP POP POP POP POP SWAP1 DUP1 PUSH1 0x2 ADD SLOAD SWAP1 POP DUP4 JUMP JUMPDEST PUSH2 0x7E1 PUSH0 DUP1 DUP7 DUP2 MSTORE PUSH1 0x20 ADD SWAP1 DUP2 MSTORE PUSH1 0x20 ADD PUSH0 KECCAK256 PUSH1 0x2 ADD SLOAD EQ PUSH2 0x320 JUMPI PUSH1 0x40 MLOAD PUSH32 0x8C379A000000000000000000000000000000000000000000000000000000000 DUP2 MSTORE PUSH1 0x4 ADD PUSH2 0x317 SWAP1 PUSH2 0x7D4 JUMP JUMPDEST PUSH1 0x40 MLOAD DUP1 SWAP2 SUB SWAP1 REVERT JUMPDEST PUSH0 PUSH1 0x40 MLOAD DUP1 PUSH1 0x60 ADD PUSH1 0x40 MSTORE DUP1 DUP6 DUP2 MSTORE PUSH1 0x20 ADD DUP5 DUP2 MSTORE PUSH1 0x20 ADD DUP4 DUP2 MSTORE POP SWAP1 POP DUP1 PUSH0 DUP1 DUP8 DUP2 MSTORE PUSH1 0x20 ADD SWAP1 DUP2 MSTORE PUSH1 0x20 ADD PUSH0 KECCAK256 PUSH0 DUP3 ADD MLOAD DUP2 PUSH0 ADD SWAP1 DUP2 PUSH2 0x362 SWAP2 SWAP1 PUSH2 0x9EC JUMP JUMPDEST POP PUSH1 0x20 DUP3 ADD MLOAD DUP2 PUSH1 0x1 ADD SWAP1 DUP2 PUSH2 0x378 SWAP2 SWAP1 PUSH2 0x9EC JUMP JUMPDEST POP PUSH1 0x40 DUP3 ADD MLOAD DUP2 PUSH1 0x2 ADD SSTORE SWAP1 POP POP POP POP POP POP POP JUMP JUMPDEST PUSH2 0x7E1 PUSH0 DUP1 DUP7 DUP2 MSTORE PUSH1 0x20 ADD SWAP1 DUP2 MSTORE PUSH1 0x20 ADD PUSH0 KECCAK256 PUSH1 0x2 ADD SLOAD EQ PUSH2 0x3E4 JUMPI PUSH1 0x40 MLOAD PUSH32 0x8C379A000000000000000000000000000000000000000000000000000000000 DUP2 MSTORE PUSH1 0x4 ADD PUSH2 0x3DB SWAP1 PUSH2 0x7D4 JUMP JUMPDEST PUSH1 0x40 MLOAD DUP1 SWAP2 SUB SWAP1 REVERT JUMPDEST PUSH0 PUSH1 0x40 MLOAD DUP1 PUSH1 0x60 ADD PUSH1 0x40 MSTORE DUP1 DUP6 DUP2 MSTORE PUSH1 0x20 ADD DUP5 DUP2 MSTORE PUSH1 0x20 ADD DUP4 DUP2 MSTORE POP SWAP1 POP DUP1 PUSH0 DUP1 DUP8 DUP2 MSTORE PUSH1 0x20 ADD SWAP1 DUP2 MSTORE PUSH1 0x20 ADD PUSH0 KECCAK256 PUSH0 DUP3 ADD MLOAD DUP2 PUSH0 ADD SWAP1 DUP2 PUSH2 0x426 SWAP2 SWAP1 PUSH2 0x9EC JUMP JUMPDEST POP PUSH1 0x20 DUP3 ADD MLOAD DUP2 PUSH1 0x1 ADD SWAP1 DUP2 PUSH2 0x43C SWAP2 SWAP1 PUSH2 0x9EC JUMP JUMPDEST POP PUSH1 0x40 DUP3 ADD MLOAD DUP2 PUSH1 0x2 ADD SSTORE SWAP1 POP POP POP POP POP POP POP JUMP JUMPDEST PUSH0 PUSH1 0x40 MLOAD SWAP1 POP SWAP1 JUMP JUMPDEST PUSH0 DUP1 REVERT JUMPDEST PUSH0 DUP1 REVERT JUMPDEST PUSH0 DUP2 SWAP1 POP SWAP2 SWAP1 POP JUMP JUMPDEST PUSH2 0x474 DUP2 PUSH2 0x462 JUMP JUMPDEST DUP2 EQ PUSH2 0x47E JUMPI PUSH0 DUP1 REVERT JUMPDEST POP JUMP JUMPDEST PUSH0 DUP2 CALLDATALOAD SWAP1 POP PUSH2 0x48F DUP2 PUSH2 0x46B JUMP JUMPDEST SWAP3 SWAP2 POP POP JUMP JUMPDEST PUSH0 DUP1 REVERT JUMPDEST PUSH0 DUP1 REVERT JUMPDEST PUSH0 PUSH1 0x1F NOT PUSH1 0x1F DUP4 ADD AND SWAP1 POP SWAP2 SWAP1 POP JUMP JUMPDEST PUSH32 0x4E487B7100000000000000000000000000000000000000000000000000000000 PUSH0 MSTORE PUSH1 0x41 PUSH1 0x4 MSTORE PUSH1 0x24 PUSH0 REVERT JUMPDEST PUSH2 0x4E3 DUP3 PUSH2 0x49D JUMP JUMPDEST DUP2 ADD DUP2 DUP2 LT PUSH8 0xFFFFFFFFFFFFFFFF DUP3 GT OR ISZERO PUSH2 0x502 JUMPI PUSH2 0x501 PUSH2 0x4AD JUMP JUMPDEST JUMPDEST DUP1 PUSH1 0x40 MSTORE POP POP POP JUMP JUMPDEST PUSH0 PUSH2 0x514 PUSH2 0x451 JUMP JUMPDEST SWAP1 POP PUSH2 0x520 DUP3 DUP3 PUSH2 0x4DA JUMP JUMPDEST SWAP2 SWAP1 POP JUMP JUMPDEST PUSH0 PUSH8 0xFFFFFFFFFFFFFFFF DUP3 GT ISZERO PUSH2 0x53F JUMPI PUSH2 0x53E PUSH2 0x4AD JUMP JUMPDEST JUMPDEST PUSH2 0x548 DUP3 PUSH2 0x49D JUMP JUMPDEST SWAP1 POP PUSH1 0x20 DUP2 ADD SWAP1 POP SWAP2 SWAP1 POP JUMP JUMPDEST DUP3 DUP2 DUP4 CALLDATACOPY PUSH0 DUP4 DUP4 ADD MSTORE POP POP POP JUMP JUMPDEST PUSH0 PUSH2 0x575 PUSH2 0x570 DUP5 PUSH2 0x525 JUMP JUMPDEST PUSH2 0x50B JUMP JUMPDEST SWAP1 POP DUP3 DUP2 MSTORE PUSH1 0x20 DUP2 ADD DUP5 DUP5 DUP5 ADD GT ISZERO PUSH2 0x591 JUMPI PUSH2 0x590 PUSH2 0x499 JUMP JUMPDEST JUMPDEST PUSH2 0x59C DUP5 DUP3 DUP6 PUSH2 0x555 JUMP JUMPDEST POP SWAP4 SWAP3 POP POP POP JUMP JUMPDEST PUSH0 DUP3 PUSH1 0x1F DUP4 ADD SLT PUSH2 0x5B8 JUMPI PUSH2 0x5B7 PUSH2 0x495 JUMP JUMPDEST JUMPDEST DUP2 CALLDATALOAD PUSH2 0x5C8 DUP5 DUP3 PUSH1 0x20 DUP7 ADD PUSH2 0x563 JUMP JUMPDEST SWAP2 POP POP SWAP3 SWAP2 POP POP JUMP JUMPDEST PUSH0 DUP1 PUSH0 DUP1 PUSH1 0x80 DUP6 DUP8 SUB SLT ISZERO PUSH2 0x5E9 JUMPI PUSH2 0x5E8 PUSH2 0x45A JUMP JUMPDEST JUMPDEST PUSH0 PUSH2 0x5F6 DUP8 DUP3 DUP9 ADD PUSH2 0x481 JUMP JUMPDEST SWAP5 POP POP PUSH1 0x20 DUP6 ADD CALLDATALOAD PUSH8 0xFFFFFFFFFFFFFFFF DUP2 GT ISZERO PUSH2 0x617 JUMPI PUSH2 0x616 PUSH2 0x45E JUMP JUMPDEST JUMPDEST PUSH2 0x623 DUP8 DUP3 DUP9 ADD PUSH2 0x5A4 JUMP JUMPDEST SWAP4 POP POP PUSH1 0x40 DUP6 ADD CALLDATALOAD PUSH8 0xFFFFFFFFFFFFFFFF DUP2 GT ISZERO PUSH2 0x644 JUMPI PUSH2 0x643 PUSH2 0x45E JUMP JUMPDEST JUMPDEST PUSH2 0x650 DUP8 DUP3 DUP9 ADD PUSH2 0x5A4 JUMP JUMPDEST SWAP3 POP POP PUSH1 0x60 PUSH2 0x661 DUP8 DUP3 DUP9 ADD PUSH2 0x481 JUMP JUMPDEST SWAP2 POP POP SWAP3 SWAP6 SWAP2 SWAP5 POP SWAP3 POP JUMP JUMPDEST PUSH0 PUSH1 0x20 DUP3 DUP5 SUB SLT ISZERO PUSH2 0x682 JUMPI PUSH2 0x681 PUSH2 0x45A JUMP JUMPDEST JUMPDEST PUSH0 PUSH2 0x68F DUP5 DUP3 DUP6 ADD PUSH2 0x481 JUMP JUMPDEST SWAP2 POP POP SWAP3 SWAP2 POP POP JUMP JUMPDEST PUSH0 DUP2 MLOAD SWAP1 POP SWAP2 SWAP1 POP JUMP JUMPDEST PUSH0 DUP3 DUP3 MSTORE PUSH1 0x20 DUP3 ADD SWAP1 POP SWAP3 SWAP2 POP POP JUMP JUMPDEST PUSH0 JUMPDEST DUP4 DUP2 LT ISZERO PUSH2 0x6CF JUMPI DUP1 DUP3 ADD MLOAD DUP2 DUP5 ADD MSTORE PUSH1 0x20 DUP2 ADD SWAP1 POP PUSH2 0x6B4 JUMP JUMPDEST PUSH0 DUP5 DUP5 ADD MSTORE POP POP POP POP JUMP JUMPDEST PUSH0 PUSH2 0x6E4 DUP3 PUSH2 0x698 JUMP JUMPDEST PUSH2 0x6EE DUP2 DUP6 PUSH2 0x6A2 JUMP JUMPDEST SWAP4 POP PUSH2 0x6FE DUP2 DUP6 PUSH1 0x20 DUP7 ADD PUSH2 0x6B2 JUMP JUMPDEST PUSH2 0x707 DUP2 PUSH2 0x49D JUMP JUMPDEST DUP5 ADD SWAP2 POP POP SWAP3 SWAP2 POP POP JUMP JUMPDEST PUSH2 0x71B DUP2 PUSH2 0x462 JUMP JUMPDEST DUP3 MSTORE POP POP JUMP JUMPDEST PUSH0 PUSH1 0x60 DUP3 ADD SWAP1 POP DUP2 DUP2 SUB PUSH0 DUP4 ADD MSTORE PUSH2 0x739 DUP2 DUP7 PUSH2 0x6DA JUMP JUMPDEST SWAP1 POP DUP2 DUP2 SUB PUSH1 0x20 DUP4 ADD MSTORE PUSH2 0x74D DUP2 DUP6 PUSH2 0x6DA JUMP JUMPDEST SWAP1 POP PUSH2 0x75C PUSH1 0x40 DUP4 ADD DUP5 PUSH2 0x712 JUMP JUMPDEST SWAP5 SWAP4 POP POP POP POP JUMP JUMPDEST PUSH32 0x42756B752064656E67616E204953424E20746572736562757420737564616820 PUSH0 DUP3 ADD MSTORE PUSH32 0x6164610000000000000000000000000000000000000000000000000000000000 PUSH1 0x20 DUP3 ADD MSTORE POP JUMP JUMPDEST PUSH0 PUSH2 0x7BE PUSH1 0x23 DUP4 PUSH2 0x6A2 JUMP JUMPDEST SWAP2 POP PUSH2 0x7C9 DUP3 PUSH2 0x764 JUMP JUMPDEST PUSH1 0x40 DUP3 ADD SWAP1 POP SWAP2 SWAP1 POP JUMP JUMPDEST PUSH0 PUSH1 0x20 DUP3 ADD SWAP1 POP DUP2 DUP2 SUB PUSH0 DUP4 ADD MSTORE PUSH2 0x7EB DUP2 PUSH2 0x7B2 JUMP JUMPDEST SWAP1 POP SWAP2 SWAP1 POP JUMP JUMPDEST PUSH32 0x4E487B7100000000000000000000000000000000000000000000000000000000 PUSH0 MSTORE PUSH1 0x22 PUSH1 0x4 MSTORE PUSH1 0x24 PUSH0 REVERT JUMPDEST PUSH0 PUSH1 0x2 DUP3 DIV SWAP1 POP PUSH1 0x1 DUP3 AND DUP1 PUSH2 0x836 JUMPI PUSH1 0x7F DUP3 AND SWAP2 POP JUMPDEST PUSH1 0x20 DUP3 LT DUP2 SUB PUSH2 0x849 JUMPI PUSH2 0x848 PUSH2 0x7F2 JUMP JUMPDEST JUMPDEST POP SWAP2 SWAP1 POP JUMP JUMPDEST PUSH0 DUP2 SWAP1 POP DUP2 PUSH0 MSTORE PUSH1 0x20 PUSH0 KECCAK256 SWAP1 POP SWAP2 SWAP1 POP JUMP JUMPDEST PUSH0 PUSH1 0x20 PUSH1 0x1F DUP4 ADD DIV SWAP1 POP SWAP2 SWAP1 POP JUMP JUMPDEST PUSH0 DUP3 DUP3 SHL SWAP1 POP SWAP3 SWAP2 POP POP JUMP JUMPDEST PUSH0 PUSH1 0x8 DUP4 MUL PUSH2 0x8AB PUSH32 0xFFFFFFFFFFFFFFFFFFFFFFFFFFFFFFFFFFFFFFFFFFFFFFFFFFFFFFFFFFFFFFFF DUP3 PUSH2 0x870 JUMP JUMPDEST PUSH2 0x8B5 DUP7 DUP4 PUSH2 0x870 JUMP JUMPDEST SWAP6 POP DUP1 NOT DUP5 AND SWAP4 POP DUP1 DUP7 AND DUP5 OR SWAP3 POP POP POP SWAP4 SWAP3 POP POP POP JUMP JUMPDEST PUSH0 DUP2 SWAP1 POP SWAP2 SWAP1 POP JUMP JUMPDEST PUSH0 PUSH2 0x8F0 PUSH2 0x8EB PUSH2 0x8E6 DUP5 PUSH2 0x462 JUMP JUMPDEST PUSH2 0x8CD JUMP JUMPDEST PUSH2 0x462 JUMP JUMPDEST SWAP1 POP SWAP2 SWAP1 POP JUMP JUMPDEST PUSH0 DUP2 SWAP1 POP SWAP2 SWAP1 POP JUMP JUMPDEST PUSH2 0x909 DUP4 PUSH2 0x8D6 JUMP JUMPDEST PUSH2 0x91D PUSH2 0x915 DUP3 PUSH2 0x8F7 JUMP JUMPDEST DUP5 DUP5 SLOAD PUSH2 0x87C JUMP JUMPDEST DUP3 SSTORE POP POP POP POP JUMP JUMPDEST PUSH0 SWAP1 JUMP JUMPDEST PUSH2 0x931 PUSH2 0x925 JUMP JUMPDEST PUSH2 0x93C DUP2 DUP5 DUP5 PUSH2 0x900 JUMP JUMPDEST POP POP POP JUMP JUMPDEST JUMPDEST DUP2 DUP2 LT ISZERO PUSH2 0x95F JUMPI PUSH2 0x954 PUSH0 DUP3 PUSH2 0x929 JUMP JUMPDEST PUSH1 0x1 DUP2 ADD SWAP1 POP PUSH2 0x942 JUMP JUMPDEST POP POP JUMP JUMPDEST PUSH1 0x1F DUP3 GT ISZERO PUSH2 0x9A4 JUMPI PUSH2 0x975 DUP2 PUSH2 0x84F JUMP JUMPDEST PUSH2 0x97E DUP5 PUSH2 0x861 JUMP JUMPDEST DUP2 ADD PUSH1 0x20 DUP6 LT ISZERO PUSH2 0x98D JUMPI DUP2 SWAP1 POP JUMPDEST PUSH2 0x9A1 PUSH2 0x999 DUP6 PUSH2 0x861 JUMP JUMPDEST DUP4 ADD DUP3 PUSH2 0x941 JUMP JUMPDEST POP POP JUMPDEST POP POP POP JUMP JUMPDEST PUSH0 DUP3 DUP3 SHR SWAP1 POP SWAP3 SWAP2 POP POP JUMP JUMPDEST PUSH0 PUSH2 0x9C4 PUSH0 NOT DUP5 PUSH1 0x8 MUL PUSH2 0x9A9 JUMP JUMPDEST NOT DUP1 DUP4 AND SWAP2 POP POP SWAP3 SWAP2 POP POP JUMP JUMPDEST PUSH0 PUSH2 0x9DC DUP4 DUP4 PUSH2 0x9B5 JUMP JUMPDEST SWAP2 POP DUP3 PUSH1 0x2 MUL DUP3 OR SWAP1 POP SWAP3 SWAP2 POP POP JUMP JUMPDEST PUSH2 0x9F5 DUP3 PUSH2 0x698 JUMP JUMPDEST PUSH8 0xFFFFFFFFFFFFFFFF DUP2 GT ISZERO PUSH2 0xA0E JUMPI PUSH2 0xA0D PUSH2 0x4AD JUMP JUMPDEST JUMPDEST PUSH2 0xA18 DUP3 SLOAD PUSH2 0x81F JUMP JUMPDEST PUSH2 0xA23 DUP3 DUP3 DUP6 PUSH2 0x963 JUMP JUMPDEST PUSH0 PUSH1 0x20 SWAP1 POP PUSH1 0x1F DUP4 GT PUSH1 0x1 DUP2 EQ PUSH2 0xA54 JUMPI PUSH0 DUP5 ISZERO PUSH2 0xA42 JUMPI DUP3 DUP8 ADD MLOAD SWAP1 POP JUMPDEST PUSH2 0xA4C DUP6 DUP3 PUSH2 0x9D1 JUMP JUMPDEST DUP7 SSTORE POP PUSH2 0xAB3 JUMP JUMPDEST PUSH1 0x1F NOT DUP5 AND PUSH2 0xA62 DUP7 PUSH2 0x84F JUMP JUMPDEST PUSH0 JUMPDEST DUP3 DUP2 LT ISZERO PUSH2 0xA89 JUMPI DUP5 DUP10 ADD MLOAD DUP3 SSTORE PUSH1 0x1 DUP3 ADD SWAP2 POP PUSH1 0x20 DUP6 ADD SWAP5 POP PUSH1 0x20 DUP2 ADD SWAP1 POP PUSH2 0xA64 JUMP JUMPDEST DUP7 DUP4 LT ISZERO PUSH2 0xAA6 JUMPI DUP5 DUP10 ADD MLOAD PUSH2 0xAA2 PUSH1 0x1F DUP10 AND DUP3 PUSH2 0x9B5 JUMP JUMPDEST DUP4 SSTORE POP JUMPDEST PUSH1 0x1 PUSH1 0x2 DUP9 MUL ADD DUP9 SSTORE POP POP POP JUMPDEST POP POP POP POP POP POP JUMP INVALID LOG2 PUSH5 0x6970667358 0x22 SLT KECCAK256 SSTORE 0xC0 JUMPDEST PUSH19 0x8CE548D12DF1EF9A7D8B30BDC0C91FF63A8E44 EXTCODECOPY SWAP5 0xCD SWAP13 0x2F CALLVALUE PUSH1 0xC8 0xE0 PUSH5 0x736F6C6343 STOP ADDMOD ISZERO STOP CALLER "
		},
		"gasEstimates": {
			"creation": {
				"codeDepositCost": "560200",
				"executionCost": "592",
				"totalCost": "560792"
			},
			"external": {
				"daftarBuku(uint256)": "infinite",
				"deleteBuku(uint256,string,string,uint256)": "infinite",
				"perbaharuiBuku(uint256,string,string,uint256)": "infinite",
				"tambahBuku(uint256,string,string,uint256)": "infinite"
			}
		},
		"methodIdentifiers": {
			"daftarBuku(uint256)": "63ece59b",
			"deleteBuku(uint256,string,string,uint256)": "a31f22d7",
			"perbaharuiBuku(uint256,string,string,uint256)": "d826085a",
			"tambahBuku(uint256,string,string,uint256)": "2146f358"
		}
	},
	"abi": [
		{
			"inputs": [
				{
					"internalType": "uint256",
					"name": "",
					"type": "uint256"
				}
			],
			"name": "daftarBuku",
			"outputs": [
				{
					"internalType": "string",
					"name": "hargaSebuahPercaya",
					"type": "string"
				},
				{
					"internalType": "string",
					"name": "tereLiye",
					"type": "string"
				},
				{
					"internalType": "uint256",
					"name": "tahunTerbit",
					"type": "uint256"
				}
			],
			"stateMutability": "view",
			"type": "function"
		},
		{
			"inputs": [
				{
					"internalType": "uint256",
					"name": "_9786029474121",
					"type": "uint256"
				},
				{
					"internalType": "string",
					"name": "_hargaSebuahPercaya",
					"type": "string"
				},
				{
					"internalType": "string",
					"name": "_tereLiye",
					"type": "string"
				},
				{
					"internalType": "uint256",
					"name": "_2017",
					"type": "uint256"
				}
			],
			"name": "deleteBuku",
			"outputs": [],
			"stateMutability": "nonpayable",
			"type": "function"
		},
		{
			"inputs": [
				{
					"internalType": "uint256",
					"name": "_9786029474121",
					"type": "uint256"
				},
				{
					"internalType": "string",
					"name": "_hargaSebuahPercaya",
					"type": "string"
				},
				{
					"internalType": "string",
					"name": "_tereLiye",
					"type": "string"
				},
				{
					"internalType": "uint256",
					"name": "_2017",
					"type": "uint256"
				}
			],
			"name": "perbaharuiBuku",
			"outputs": [],
			"stateMutability": "nonpayable",
			"type": "function"
		},
		{
			"inputs": [
				{
					"internalType": "uint256",
					"name": "_9786029474121",
					"type": "uint256"
				},
				{
					"internalType": "string",
					"name": "_hargaSebuahPercaya",
					"type": "string"
				},
				{
					"internalType": "string",
					"name": "_tereLiye",
					"type": "string"
				},
				{
					"internalType": "uint256",
					"name": "_2017",
					"type": "uint256"
				}
			],
			"name": "tambahBuku",
			"outputs": [],
			"stateMutability": "nonpayable",
			"type": "function"
		}
	]
}